:100000000C9434000C9485010C9451000C94510014
:100010000C9451000C9451000C9451000C9451001C
:100020000C9451000C9451000C9451000C9451010B
:100030000C9451000C9451000C9451000C945100FC
:100040000C9451000C9451000C9451000C945100EC
:100050000C9451000C9451000C9451000C945100DC
:100060000C9451000C94510011241FBECFEFD8E026
:10007000DEBFCDBF11E0A0E0B1E0ECEBF3E002C0E9
:1000800005900D92AA30B107D9F721E0AAE0B1E0BE
:1000900001C01D92A731B207E1F70E94B1010C9493
:1000A000DC010C940000CF93DF930F92CDB7DEB745
:1000B000782F892F6983998121E030E002C0220FD7
:1000C000331F9A95E2F7622F0F90DF91CF91089539
:1000D000CF93DF930F92CDB7DEB7782F892F698347
:1000E000998121E030E002C0220F331F9A95E2F798
:1000F000622F0F90DF91CF910895CF93DF930F92EE
:10010000CDB7DEB74983E72FF82F8081862B808318
:100110008981811103C08081682760830F90DF91FE
:10012000CF910895E72FF82F8081682381E009F4AB
:1001300080E00895E72FF82F8081682381E009F49B
:1001400080E00895482F609114017091150180910D
:1001500016010E947D0060910E0170910F01809147
:10016000100141E00E947D0085E38A95F1F70000CF
:1001700060910E0170910F018091100140E00E948A
:100180007D0085E38A95F1F700000895CF93DF9312
:10019000C82FD8E08C2F81700E94A200C695D15044
:1001A000C9F760911101709112018091130141E032
:1001B0000E947D008AE68A95F1F700C060911101E6
:1001C000709112018091130140E00E947D00DF9147
:1001D000CF91089588E38AB965E08BE290E00E94B0
:1001E000530060931401709315018093160164E02D
:1001F0008BE290E00E945300609311017093120112
:100200008093130163E08BE290E00E9453006093BF
:100210000E0170930F01809310015A9A62E089E2F7
:1002200090E00E94680060930B0170930C01809332
:100230000D0160910E0170910F018091100140E05D
:100240000E947D0060911101709112018091130153
:1002500040E00E947D00809100010E94C600F89459
:1002600010928000E1E8F0E0108288E09DE3909336
:10027000890080938800808188608083808181608C
:100280008083808184608083EFE6F0E080818260FB
:100290008083E9E6F0E0808182608083E89A789448
:1002A00008951F920F920FB60F9211242F933F9330
:1002B0004F935F936F937F938F939F93AF93BF936E
:1002C000EF93FF9380910A0190E001966AE070E05D
:1002D0000E94B40180930A01E0910A01F0E0E0502D
:1002E000FF4F80810E94C600FF91EF91BF91AF91B7
:1002F0009F918F917F916F915F914F913F912F913E
:100300000F900FBE0F901F9018951F920F920FB66F
:100310000F9211242F933F934F935F936F937F938B
:100320008F939F93AF93BF93EF93FF9310920A0124
:10033000809100010E94C6001092850010928400F6
:10034000FF91EF91BF91AF919F918F917F916F91AD
:100350005F914F913F912F910F900FBE0F901F9083
:1003600018950E94EA00FFCF97FB072E16F4009421
:1003700007D077FD09D00E94C80107FC05D03EF4E4
:10038000909581959F4F0895709561957F4F089541
:10039000AA1BBB1B51E107C0AA1FBB1FA617B707AB
:1003A00010F0A61BB70B881F991F5A95A9F78095C7
:0C03B0009095BC01CD010895F894FFCF9A
:0A03BC003F065B4F666D7D077F6F03
:00000001FF
