:100000000C9434000C946A010C9451000C9451002F
:100010000C9451000C9451000C9451000C9451001C
:100020000C9451000C9451000C9451000C94480114
:100030000C9451000C9451000C9451000C945100FC
:100040000C9451000C9451000C9451000C945100EC
:100050000C9451000C9451000C9451000C945100DC
:100060000C9451000C94510011241FBECFEFD8E026
:10007000DEBFCDBF11E0A0E0B1E0ECE6F3E002C0EE
:1000800005900D92AA30B107D9F721E0AAE0B1E0BE
:1000900001C01D92A731B207E1F70E9487010C94BD
:1000A000B4010C940000CF93DF930F92CDB7DEB76D
:1000B000782F892F6983998121E030E002C0220FD7
:1000C000331F9A95E2F7622F0F90DF91CF91089539
:1000D000CF93DF930F92CDB7DEB7782F892F698347
:1000E000998121E030E002C0220F331F9A95E2F798
:1000F000622F0F90DF91CF910895CF93DF930F92EE
:10010000CDB7DEB74983E72FF82F8081862B808318
:100110008981811103C08081682760830F90DF91FE
:10012000CF910895E72FF82F8081682381E009F4AB
:1001300080E00895E72FF82F8081682381E009F49B
:1001400080E00895482F609114017091150180910D
:1001500016010E947D0060910E0170910F01809147
:10016000100141E00E947D0060910E0170910F012D
:100170008091100140E00E947D000895CF93DF93AD
:10018000C82FD8E08C2F81700E94A200C695D15054
:10019000C9F760911101709112018091130141E042
:1001A0000E947D00609111017091120180911301F4
:1001B00040E00E947D00DF91CF910895F894109265
:1001C0008000E1E8F0E0108288E09DE390938900F0
:1001D00080938800808188608083808181608083B3
:1001E000808184608083EFE6F0E08081826080839C
:1001F000E9E6F0E0808182608083E89A789408954F
:1002000088E38AB965E08BE290E00E945300609336
:100210001401709315018093160164E08BE290E065
:100220000E94530060931101709312018093130197
:1002300063E08BE290E00E94530060930E017093A4
:100240000F01809310015A9A62E089E290E00E94C7
:10025000680060930B0170930C0180930D01609115
:100260000E0170910F018091100140E00E947D000D
:1002700060911101709112018091130140E00E9480
:100280007D00809100010E94BE000E94DE00089562
:100290000F920FB60F921F9211245F936F937F936B
:1002A0008F939F93AF93BF9380910A0190E0019643
:1002B0006AE070E00E948C0180930A01BF91AF91C7
:1002C0009F918F917F916F915F911F900F900FBEC3
:1002D0000F9018951F921FB61F92112410920A01B9
:1002E00010928500109284001F901FBE1F901895D9
:1002F000E0910A01F0E0E050FF4F80810E94BE00D3
:100300008FE39CE90197F1F700C0000008950E9477
:1003100000010E947801FDCF97FB072E16F4009490
:1003200007D077FD09D00E94A00107FC05D03EF45C
:10033000909581959F4F0895709561957F4F089591
:10034000AA1BBB1B51E107C0AA1FBB1FA617B707FB
:1003500010F0A61BB70B881F991F5A95A9F7809517
:0C0360009095BC01CD010895F894FFCFEA
:0A036C003F065B4F666D7D077F6F53
:00000001FF
