:100000000C9434000C9446000C9446000C9446006A
:100010000C9446000C9446000C9446000C94460048
:100020000C9446000C9446000C9446000C94460038
:100030000C9446000C9446000C9446000C94460028
:100040000C9446000C9446000C9446000C94460018
:100050000C9446000C9446000C9446000C94460008
:100060000C9446000C94460011241FBECFEFD8E03C
:10007000DEBFCDBF21E0A0E0B1E001C01D92A33200
:10008000B207E1F70E943E010C9443010C9400007A
:10009000CF93DF930F92CDB7DEB7782F892F698387
:1000A000998121E030E002C0220F331F9A95E2F7D8
:1000B000622F0F90DF91CF910895CF93DF930F922E
:1000C000CDB7DEB7782F892F6983998121E030E0A1
:1000D00002C0220F331F9A95E2F7622F0F90DF9133
:1000E000CF910895CF93DF930F92CDB7DEB74983B9
:1000F000E72FF82F8081862B80838981811103C0AF
:100100008081682760830F90DF91CF910895E72F5A
:10011000F82F8081682381E009F480E00895E72FBB
:10012000F82F8081682381E009F480E00895E0E001
:10013000F1E030E020E090E061E070E005C02F5F8A
:100140003F4F2330310591F04081518182813396B8
:10015000A52FB82F8C91842391F7AB01022E02C0FA
:10016000440F551F0A94E2F7940FE9CF1BB8892F6B
:1001700090E0FC01EE0FFF1FE80FF91FE75FFE4F55
:1001800060817181828141E00E94720008958091B6
:100190002101909122018C329140A4F48FEF92E5DD
:1001A00027E0815090402040E1F700C0000080919E
:1001B0002101909122018A569F4F909322018093B2
:1001C000210108950E9497001092220110922101AE
:1001D000E5CFEF92FF920F931F93CF93DF9314B865
:1001E000D0E0C0E0EE24E394F12C85B197010C2E11
:1001F00002C0220F331F0A94E2F7820F85B98E01E5
:10020000000F111F0C0F1D1F00501F4F6C2F83E29A
:1002100090E00E945D00F8016083718382832196E3
:10022000C330D10511F71AB8D0E0C0E0EE24E39452
:10023000F12C8AB197010C2E02C0220F331F0A94B1
:10024000E2F7820F8AB98E01000F111F0C0F1D1FDC
:10025000075F1E4F6C2F8BE290E00E944800F80170
:100260006083718382832196C830D10511F7DF91B5
:10027000CF911F910F91FF90EF9008950E94E90098
:0A0280000E94C700FDCFF894FFCFE5
:00000001FF
