:100000000C9434000C9446000C9446000C9446006A
:100010000C9446000C9446000C9446000C94460048
:100020000C9446000C9446000C9446000C94460038
:100030000C9446000C9446000C9446000C94460028
:100040000C9446000C9446000C9446000C94460018
:100050000C9446000C9446000C9446000C94460008
:100060000C9446000C94460011241FBECFEFD8E03C
:10007000DEBFCDBF21E0A0E0B1E001C01D92A33200
:10008000B207E1F70E9442010C9447010C94000072
:10009000CF93DF930F92CDB7DEB7782F892F698387
:1000A000998121E030E002C0220F331F9A95E2F7D8
:1000B000622F0F90DF91CF910895CF93DF930F922E
:1000C000CDB7DEB7782F892F6983998121E030E0A1
:1000D00002C0220F331F9A95E2F7622F0F90DF9133
:1000E000CF910895CF93DF930F92CDB7DEB74983B9
:1000F000E72FF82F8081862B80838981811103C0AF
:100100008081682760830F90DF91CF910895E72F5A
:10011000F82F8081682381E009F480E00895E72FBB
:10012000F82F8081682381E009F480E008951F930F
:10013000CF93DF93182FD0E0C0E0412F4170FE0134
:10014000EE0FFF1FEC0FFD1FE85EFE4F6081718117
:1001500082810E94720016952196C330D10569F7FD
:10016000DF91CF911F910895E0E0F1E030E020E0D1
:100170008081418192813396A42FB92F9C9198233D
:1001800031F02F5F3F4F2830310591F70895822FCE
:100190000E949700089580912101909122018A3F49
:1001A0009105A4F42FEF82E597E021508040904024
:1001B000E1F700C0000080912101909122018A5650
:1001C0009F4F909322018093210108950E94B400D3
:1001D0001092220110922101E5CFEF92FF920F932E
:1001E0001F93CF93DF9314B8D0E0C0E0EE24E394E4
:1001F000F12C84B197010C2E02C0220F331F0A94F8
:10020000E2F7820F84B98E01000F111F0C0F1D1F22
:10021000085E1E4F6C2F85E290E00E944800F801B6
:100220006083718382832196C330D10511F71AB898
:10023000D0E0C0E0EE24E394F12C8BB197010C2EBA
:1002400002C0220F331F0A94E2F7820F8BB98E018E
:10025000000F111F0C0F1D1F00501F4F6C2F89E244
:1002600090E00E945D00F801608371838283219693
:10027000C830D10511F7DF91CF911F910F91FF90F9
:10028000EF9008950E94ED000E94CB00FDCFF894FE
:02029000FFCF9E
:00000001FF
