:100000000C9434000C9451000C9451000C94510049
:100010000C9451000C9451000C9451000C9451001C
:100020000C9451000C9451000C9451000C9451000C
:100030000C9451000C9451000C9451000C945100FC
:100040000C9451000C9451000C9451000C945100EC
:100050000C9451000C9451000C9451000C945100DC
:100060000C9451000C94510011241FBECFEFD8E026
:10007000DEBFCDBF11E0A0E0B1E0E6E9F2E002C0F2
:1000800005900D92AA30B107D9F721E0AAE0B1E0BE
:1000900001C01D92A331B207E1F70E9444010C9404
:1000A00049010C940000CF93DF930F92CDB7DEB7D8
:1000B000782F892F6983998121E030E002C0220FD7
:1000C000331F9A95E2F7622F0F90DF91CF91089539
:1000D000CF93DF930F92CDB7DEB7782F892F698347
:1000E000998121E030E002C0220F331F9A95E2F798
:1000F000622F0F90DF91CF910895CF93DF930F92EE
:10010000CDB7DEB74983E72FF82F8081862B808318
:100110008981811103C08081682760830F90DF91FE
:10012000CF910895E72FF82F8081682381E009F4AB
:1001300080E00895E72FF82F8081682381E009F49B
:1001400080E00895482F6091100170911101809115
:1001500012010E947D0060910A0170910B01809153
:100160000C0141E00E947D0060910A0170910B0139
:1001700080910C0140E00E947D000895CF93DF93B1
:10018000C82FD8E08C2F81700E94A200C695D15054
:10019000C9F760910D0170910E0180910F0141E04E
:1001A0000E947D0060910D0170910E0180910F0100
:1001B00040E00E947D00DF91CF91089588E38AB9E5
:1001C00065E08BE290E00E94530060931001709311
:1001D00011018093120164E08BE290E00E945300D1
:1001E00060930D0170930E0180930F0163E08BE229
:1001F00090E00E94530060930A0170930B0180937A
:100200000C0140E00E947D0060910D0170910E0193
:1002100080910F0140E00E947D00809100010E94CA
:10022000BE000895EAE7F0E0808187688083ECE70C
:10023000F0E08081806C80830895EAE7F0E08081BF
:1002400080648083808186FDFDCF809178009091CD
:10025000790008950E94DE000E94120108950E9414
:100260001D01FC01EE0FFF1FEE0FFF1FE80FF91F2E
:10027000EE0FFF1FEF2FFF27E695E695E050FF4FAB
:1002800080810E94BE0008950E942A010E942F01D1
:06029000FDCFF894FFCF42
:0A0296003F065B4F666D7D077F6F2A
:00000001FF
