:100000000C9434000C944F010C9445010C94510055
:100010000C9451000C9451000C9451000C9451001C
:100020000C9451000C9451000C9451000C9451000C
:100030000C9451000C9451000C9451000C945100FC
:100040000C9451000C9451000C9451000C945100EC
:100050000C9451000C9451000C9451000C945100DC
:100060000C9451000C94510011241FBECFEFD8E026
:10007000DEBFCDBF11E0A0E0B1E0EEE5F3E002C0ED
:1000800005900D92AA30B107D9F721E0AAE0B1E0BE
:1000900001C01D92A431B207E1F70E9480010C94C7
:1000A000AD010C940000CF93DF930F92CDB7DEB774
:1000B000782F892F6983998121E030E002C0220FD7
:1000C000331F9A95E2F7622F0F90DF91CF91089539
:1000D000CF93DF930F92CDB7DEB7782F892F698347
:1000E000998121E030E002C0220F331F9A95E2F798
:1000F000622F0F90DF91CF910895CF93DF930F92EE
:10010000CDB7DEB74983E72FF82F8081862B808318
:100110008981811103C08081682760830F90DF91FE
:10012000CF910895E72FF82F8081682381E009F4AB
:1001300080E00895E72FF82F8081682381E009F49B
:1001400080E00895482F6091110170911201809113
:1001500013010E947D0060910B0170910C01809150
:100160000D0141E00E947D0060910B0170910C0136
:1001700080910D0140E00E947D000895CF93DF93B0
:10018000C82FD8E08C2F81700E94A200C695D15054
:10019000C9F760910E0170910F018091100141E04B
:1001A0000E947D0060910E0170910F0180911001FD
:1001B00040E00E947D00DF91CF910895F894E9E638
:1001C000F0E0808182608083E89A8081886080830B
:1001D000E99A78940895282F392FF999FECF32BDE6
:1001E00021BD60BDFA9AF99A0895282F392FF999FF
:1001F000FECF32BD21BDF89A80B5089580E78AB957
:1002000066E08BE290E00E945300609311017093CE
:1002100012018093130165E08BE290E00E9453008D
:1002200060930E0170930F018093100164E08BE2E4
:1002300090E00E94530060930B0170930C01809337
:100240000D015A9A5B9A60910B0170910C0180919B
:100250000D0140E00E947D0060910E0170910F0140
:100260008091100140E00E947D00809100010E9479
:10027000BE0008950E94FE000E94DE0081E090E032
:100280000E94F50080930A0108951F921FB61F92E5
:10029000112410920A011F901FBE1F9018950F92F3
:1002A0000FB60F921F9211245F936F937F938F93DA
:1002B0009F93AF93BF9380910A0190E001966AE00B
:1002C00070E00E94850180930A01BF91AF919F91D8
:1002D0008F917F916F915F911F900F900FBE0F9044
:1002E000189560910A0181E090E00E94EB00E09196
:1002F0000A01F0E0E050FF4F80810E94BE000895A7
:100300000E943A010E947101FDCF97FB072E16F45F
:10031000009407D077FD09D00E94990107FC05D011
:100320003EF4909581959F4F0895709561957F4F0C
:100330000895AA1BBB1B51E107C0AA1FBB1FA6172C
:10034000B70710F0A61BB70B881F991F5A95A9F77E
:0E03500080959095BC01CD010895F894FFCFE3
:0A035E003F065B4F666D7D077F6F61
:00000001FF
